{
  "_format": "hh-sol-artifact-1",
  "contractName": "TreasuryVault",
  "sourceName": "contracts/TreasuryVault.sol",
  "abi": [
    {
      "inputs": [
        {
          "internalType": "address",
          "name": "_uniswapV2Router",
          "type": "address"
        },
        {
          "internalType": "address",
          "name": "_uniswapV3Router",
          "type": "address"
        }
      ],
      "stateMutability": "nonpayable",
      "type": "constructor"
    },
    {
      "anonymous": false,
      "inputs": [
        {
          "indexed": true,
          "internalType": "bytes32",
          "name": "assetId",
          "type": "bytes32"
        },
        {
          "indexed": true,
          "internalType": "address",
          "name": "token",
          "type": "address"
        },
        {
          "indexed": false,
          "internalType": "uint256",
          "name": "targetAllocation",
          "type": "uint256"
        }
      ],
      "name": "AssetAdded",
      "type": "event"
    },
    {
      "anonymous": false,
      "inputs": [
        {
          "indexed": true,
          "internalType": "address",
          "name": "by",
          "type": "address"
        },
        {
          "indexed": false,
          "internalType": "uint256",
          "name": "timestamp",
          "type": "uint256"
        }
      ],
      "name": "EmergencyPaused",
      "type": "event"
    },
    {
      "anonymous": false,
      "inputs": [
        {
          "indexed": true,
          "internalType": "address",
          "name": "by",
          "type": "address"
        },
        {
          "indexed": false,
          "internalType": "string",
          "name": "action",
          "type": "string"
        },
        {
          "indexed": false,
          "internalType": "bytes",
          "name": "data",
          "type": "bytes"
        }
      ],
      "name": "GovernanceAction",
      "type": "event"
    },
    {
      "anonymous": false,
      "inputs": [
        {
          "indexed": true,
          "internalType": "bytes32",
          "name": "feedId",
          "type": "bytes32"
        },
        {
          "indexed": true,
          "internalType": "address",
          "name": "tokenFrom",
          "type": "address"
        },
        {
          "indexed": true,
          "internalType": "address",
          "name": "tokenTo",
          "type": "address"
        },
        {
          "indexed": false,
          "internalType": "uint256",
          "name": "amount",
          "type": "uint256"
        },
        {
          "indexed": false,
          "internalType": "int256",
          "name": "triggerPrice",
          "type": "int256"
        }
      ],
      "name": "RebalanceExecuted",
      "type": "event"
    },
    {
      "anonymous": false,
      "inputs": [
        {
          "indexed": true,
          "internalType": "bytes32",
          "name": "role",
          "type": "bytes32"
        },
        {
          "indexed": true,
          "internalType": "bytes32",
          "name": "previousAdminRole",
          "type": "bytes32"
        },
        {
          "indexed": true,
          "internalType": "bytes32",
          "name": "newAdminRole",
          "type": "bytes32"
        }
      ],
      "name": "RoleAdminChanged",
      "type": "event"
    },
    {
      "anonymous": false,
      "inputs": [
        {
          "indexed": true,
          "internalType": "bytes32",
          "name": "role",
          "type": "bytes32"
        },
        {
          "indexed": true,
          "internalType": "address",
          "name": "account",
          "type": "address"
        },
        {
          "indexed": true,
          "internalType": "address",
          "name": "sender",
          "type": "address"
        }
      ],
      "name": "RoleGranted",
      "type": "event"
    },
    {
      "anonymous": false,
      "inputs": [
        {
          "indexed": true,
          "internalType": "bytes32",
          "name": "role",
          "type": "bytes32"
        },
        {
          "indexed": true,
          "internalType": "address",
          "name": "account",
          "type": "address"
        },
        {
          "indexed": true,
          "internalType": "address",
          "name": "sender",
          "type": "address"
        }
      ],
      "name": "RoleRevoked",
      "type": "event"
    },
    {
      "inputs": [],
      "name": "DEFAULT_ADMIN_ROLE",
      "outputs": [
        {
          "internalType": "bytes32",
          "name": "",
          "type": "bytes32"
        }
      ],
      "stateMutability": "view",
      "type": "function"
    },
    {
      "inputs": [],
      "name": "EMERGENCY_ROLE",
      "outputs": [
        {
          "internalType": "bytes32",
          "name": "",
          "type": "bytes32"
        }
      ],
      "stateMutability": "view",
      "type": "function"
    },
    {
      "inputs": [],
      "name": "GOVERNANCE_ROLE",
      "outputs": [
        {
          "internalType": "bytes32",
          "name": "",
          "type": "bytes32"
        }
      ],
      "stateMutability": "view",
      "type": "function"
    },
    {
      "inputs": [],
      "name": "REACTIVE_ROLE",
      "outputs": [
        {
          "internalType": "bytes32",
          "name": "",
          "type": "bytes32"
        }
      ],
      "stateMutability": "view",
      "type": "function"
    },
    {
      "inputs": [
        {
          "internalType": "bytes32",
          "name": "assetId",
          "type": "bytes32"
        },
        {
          "internalType": "address",
          "name": "token",
          "type": "address"
        },
        {
          "internalType": "uint256",
          "name": "targetAllocation",
          "type": "uint256"
        },
        {
          "internalType": "uint256",
          "name": "minBalance",
          "type": "uint256"
        }
      ],
      "name": "addAsset",
      "outputs": [],
      "stateMutability": "nonpayable",
      "type": "function"
    },
    {
      "inputs": [
        {
          "internalType": "address",
          "name": "",
          "type": "address"
        }
      ],
      "name": "assetBalances",
      "outputs": [
        {
          "internalType": "uint256",
          "name": "",
          "type": "uint256"
        }
      ],
      "stateMutability": "view",
      "type": "function"
    },
    {
      "inputs": [
        {
          "internalType": "bytes32",
          "name": "",
          "type": "bytes32"
        }
      ],
      "name": "assetConfigs",
      "outputs": [
        {
          "internalType": "address",
          "name": "token",
          "type": "address"
        },
        {
          "internalType": "uint256",
          "name": "targetAllocation",
          "type": "uint256"
        },
        {
          "internalType": "uint256",
          "name": "minBalance",
          "type": "uint256"
        },
        {
          "internalType": "bool",
          "name": "isActive",
          "type": "bool"
        }
      ],
      "stateMutability": "view",
      "type": "function"
    },
    {
      "inputs": [
        {
          "internalType": "uint256",
          "name": "",
          "type": "uint256"
        }
      ],
      "name": "assetIds",
      "outputs": [
        {
          "internalType": "bytes32",
          "name": "",
          "type": "bytes32"
        }
      ],
      "stateMutability": "view",
      "type": "function"
    },
    {
      "inputs": [
        {
          "internalType": "bytes32",
          "name": "feedId",
          "type": "bytes32"
        },
        {
          "internalType": "int256",
          "name": "currentPrice",
          "type": "int256"
        },
        {
          "internalType": "uint256",
          "name": "changePercent",
          "type": "uint256"
        }
      ],
      "name": "executeRebalance",
      "outputs": [],
      "stateMutability": "nonpayable",
      "type": "function"
    },
    {
      "inputs": [
        {
          "internalType": "bytes32",
          "name": "assetId",
          "type": "bytes32"
        }
      ],
      "name": "getAssetAllocation",
      "outputs": [
        {
          "internalType": "address",
          "name": "token",
          "type": "address"
        },
        {
          "internalType": "uint256",
          "name": "balance",
          "type": "uint256"
        },
        {
          "internalType": "uint256",
          "name": "targetAllocation",
          "type": "uint256"
        },
        {
          "internalType": "uint256",
          "name": "currentAllocation",
          "type": "uint256"
        }
      ],
      "stateMutability": "view",
      "type": "function"
    },
    {
      "inputs": [],
      "name": "getPortfolioState",
      "outputs": [
        {
          "internalType": "uint256",
          "name": "_totalValue",
          "type": "uint256"
        },
        {
          "internalType": "uint256",
          "name": "_lastRebalance",
          "type": "uint256"
        },
        {
          "internalType": "uint256",
          "name": "_rebalanceCount",
          "type": "uint256"
        }
      ],
      "stateMutability": "view",
      "type": "function"
    },
    {
      "inputs": [
        {
          "internalType": "bytes32",
          "name": "role",
          "type": "bytes32"
        }
      ],
      "name": "getRoleAdmin",
      "outputs": [
        {
          "internalType": "bytes32",
          "name": "",
          "type": "bytes32"
        }
      ],
      "stateMutability": "view",
      "type": "function"
    },
    {
      "inputs": [
        {
          "internalType": "bytes32",
          "name": "role",
          "type": "bytes32"
        },
        {
          "internalType": "address",
          "name": "account",
          "type": "address"
        }
      ],
      "name": "grantRole",
      "outputs": [],
      "stateMutability": "nonpayable",
      "type": "function"
    },
    {
      "inputs": [
        {
          "internalType": "bytes32",
          "name": "role",
          "type": "bytes32"
        },
        {
          "internalType": "address",
          "name": "account",
          "type": "address"
        }
      ],
      "name": "hasRole",
      "outputs": [
        {
          "internalType": "bool",
          "name": "",
          "type": "bool"
        }
      ],
      "stateMutability": "view",
      "type": "function"
    },
    {
      "inputs": [],
      "name": "isPaused",
      "outputs": [
        {
          "internalType": "bool",
          "name": "",
          "type": "bool"
        }
      ],
      "stateMutability": "view",
      "type": "function"
    },
    {
      "inputs": [],
      "name": "lastRebalanceTimestamp",
      "outputs": [
        {
          "internalType": "uint256",
          "name": "",
          "type": "uint256"
        }
      ],
      "stateMutability": "view",
      "type": "function"
    },
    {
      "inputs": [],
      "name": "pause",
      "outputs": [],
      "stateMutability": "nonpayable",
      "type": "function"
    },
    {
      "inputs": [],
      "name": "rebalanceCooldown",
      "outputs": [
        {
          "internalType": "uint256",
          "name": "",
          "type": "uint256"
        }
      ],
      "stateMutability": "view",
      "type": "function"
    },
    {
      "inputs": [
        {
          "internalType": "uint256",
          "name": "",
          "type": "uint256"
        }
      ],
      "name": "rebalanceHistory",
      "outputs": [
        {
          "internalType": "address",
          "name": "tokenFrom",
          "type": "address"
        },
        {
          "internalType": "address",
          "name": "tokenTo",
          "type": "address"
        },
        {
          "internalType": "uint256",
          "name": "amount",
          "type": "uint256"
        },
        {
          "internalType": "uint256",
          "name": "timestamp",
          "type": "uint256"
        },
        {
          "internalType": "bytes32",
          "name": "triggeredBy",
          "type": "bytes32"
        }
      ],
      "stateMutability": "view",
      "type": "function"
    },
    {
      "inputs": [
        {
          "internalType": "bytes32",
          "name": "role",
          "type": "bytes32"
        },
        {
          "internalType": "address",
          "name": "account",
          "type": "address"
        }
      ],
      "name": "renounceRole",
      "outputs": [],
      "stateMutability": "nonpayable",
      "type": "function"
    },
    {
      "inputs": [
        {
          "internalType": "bytes32",
          "name": "role",
          "type": "bytes32"
        },
        {
          "internalType": "address",
          "name": "account",
          "type": "address"
        }
      ],
      "name": "revokeRole",
      "outputs": [],
      "stateMutability": "nonpayable",
      "type": "function"
    },
    {
      "inputs": [
        {
          "internalType": "address",
          "name": "caller",
          "type": "address"
        }
      ],
      "name": "setReactiveCaller",
      "outputs": [],
      "stateMutability": "nonpayable",
      "type": "function"
    },
    {
      "inputs": [
        {
          "internalType": "bytes4",
          "name": "interfaceId",
          "type": "bytes4"
        }
      ],
      "name": "supportsInterface",
      "outputs": [
        {
          "internalType": "bool",
          "name": "",
          "type": "bool"
        }
      ],
      "stateMutability": "view",
      "type": "function"
    },
    {
      "inputs": [],
      "name": "totalValue",
      "outputs": [
        {
          "internalType": "uint256",
          "name": "",
          "type": "uint256"
        }
      ],
      "stateMutability": "view",
      "type": "function"
    },
    {
      "inputs": [],
      "name": "uniswapV2Router",
      "outputs": [
        {
          "internalType": "address",
          "name": "",
          "type": "address"
        }
      ],
      "stateMutability": "view",
      "type": "function"
    },
    {
      "inputs": [],
      "name": "uniswapV3Router",
      "outputs": [
        {
          "internalType": "address",
          "name": "",
          "type": "address"
        }
      ],
      "stateMutability": "view",
      "type": "function"
    },
    {
      "inputs": [],
      "name": "unpause",
      "outputs": [],
      "stateMutability": "nonpayable",
      "type": "function"
    },
    {
      "inputs": [
        {
          "internalType": "bytes32",
          "name": "assetId",
          "type": "bytes32"
        },
        {
          "internalType": "uint256",
          "name": "newAllocation",
          "type": "uint256"
        }
      ],
      "name": "updateAssetAllocation",
      "outputs": [],
      "stateMutability": "nonpayable",
      "type": "function"
    },
    {
      "stateMutability": "payable",
      "type": "receive"
    }
  ],
  "bytecode": "0x6080604052610e10600a553480156200001757600080fd5b5060405162002068380380620020688339810160408190526200003a916200017d565b600160009081556200004d9033620000d7565b620000797f71840dc4906352362b0cdaf79870196c8e42acafade72d5d5a6d59291253ceb133620000d7565b620000a57fbf233dd2aafeb4d50879c4aa5c81e96d92f6e6945c906a58f9f2d1c1631b4b2633620000d7565b600680546001600160a01b039384166001600160a01b03199182161790915560078054929093169116179055620001b5565b60008281526001602090815260408083206001600160a01b038516845290915290205460ff166200015c5760008281526001602081815260408084206001600160a01b0386168086529252808420805460ff19169093179092559051339285917f2f8788117e7eff1d82e926ec794901d17c78024a50270940304540a733656f0d9190a45b5050565b80516001600160a01b03811681146200017857600080fd5b919050565b600080604083850312156200019157600080fd5b6200019c8362000160565b9150620001ac6020840162000160565b90509250929050565b611ea380620001c56000396000f3fe6080604052600436106101ba5760003560e01c80638456cb59116100ec578063b83d81571161008a578063cff5137f11610064578063cff5137f14610621578063d4c3eea014610641578063d547741f14610657578063f36c8f5c1461067757600080fd5b8063b83d8157146105cb578063bf654e76146105e1578063bf6b4e911461060157600080fd5b806391d14854116100c657806391d148541461055f578063a217fddf1461057f578063b187bd2614610594578063b3de272d146105b557600080fd5b80638456cb59146104fd578063867c12471461051257806387541ed61461053f57600080fd5b80632c76d7a6116101595780633f4ba83a116101335780633f4ba83a146104415780634c39ad481461045657806368ed6670146104a95780637ab48e6d146104c957600080fd5b80632c76d7a6146103df5780632f2ff15d146103ff57806336568abe1461042157600080fd5b80631694505e116101955780631694505e1461030357806320df43591461033b57806321c6aaf31461037d578063248a9ca3146103ae57600080fd5b80625276ee1461020757806301ffc9a714610256578063084e546d1461028657600080fd5b3661020257600080805260036020527f3617319a054d772f909f7c479a2cebe5066e836a939412e32403c99029b92eff80543492906101fa908490611b09565b925050819055005b600080fd5b34801561021357600080fd5b50610227610222366004611b1c565b610699565b604080516001600160a01b03909516855260208501939093529183015260608201526080015b60405180910390f35b34801561026257600080fd5b50610276610271366004611b35565b610732565b604051901515815260200161024d565b34801561029257600080fd5b506102d76102a1366004611b1c565b600260208190526000918252604090912080546001820154928201546003909201546001600160a01b0390911692919060ff1684565b604080516001600160a01b0390951685526020850193909352918301521515606082015260800161024d565b34801561030f57600080fd5b50600654610323906001600160a01b031681565b6040516001600160a01b03909116815260200161024d565b34801561034757600080fd5b5061036f7fbf233dd2aafeb4d50879c4aa5c81e96d92f6e6945c906a58f9f2d1c1631b4b2681565b60405190815260200161024d565b34801561038957600080fd5b506008546009546005546040805193845260208401929092529082015260600161024d565b3480156103ba57600080fd5b5061036f6103c9366004611b1c565b6000908152600160208190526040909120015490565b3480156103eb57600080fd5b50600754610323906001600160a01b031681565b34801561040b57600080fd5b5061041f61041a366004611b7b565b610769565b005b34801561042d57600080fd5b5061041f61043c366004611b7b565b610794565b34801561044d57600080fd5b5061041f610817565b34801561046257600080fd5b50610476610471366004611b1c565b61085a565b604080516001600160a01b039687168152959094166020860152928401919091526060830152608082015260a00161024d565b3480156104b557600080fd5b5061041f6104c4366004611ba7565b6108a7565b3480156104d557600080fd5b5061036f7fe286d85d055d9c4dcf75801079a9370d8cc2d35db53d804b5b94584572b4c02281565b34801561050957600080fd5b5061041f610a11565b34801561051e57600080fd5b5061036f61052d366004611bd3565b60036020526000908152604090205481565b34801561054b57600080fd5b5061036f61055a366004611b1c565b610a8d565b34801561056b57600080fd5b5061027661057a366004611b7b565b610aae565b34801561058b57600080fd5b5061036f600081565b3480156105a057600080fd5b5060075461027690600160a01b900460ff1681565b3480156105c157600080fd5b5061036f600a5481565b3480156105d757600080fd5b5061036f60095481565b3480156105ed57600080fd5b5061041f6105fc366004611bee565b610ad9565b34801561060d57600080fd5b5061041f61061c366004611c29565b610c8a565b34801561062d57600080fd5b5061041f61063c366004611bd3565b610d1a565b34801561064d57600080fd5b5061036f60085481565b34801561066357600080fd5b5061041f610672366004611b7b565b610d7b565b34801561068357600080fd5b5061036f600080516020611e4e83398151915281565b6000818152600260208181526040808420815160808101835281546001600160a01b0316808252600183015482860152948201548184015260039182015460ff16151560608201529385529091528220546008548392839283928390610700576000610719565b60085461070f83612710611c4b565b6107199190611c62565b8351602090940151939992985092965091945092505050565b60006001600160e01b03198216637965db0b60e01b148061076357506301ffc9a760e01b6001600160e01b03198316145b92915050565b6000828152600160208190526040909120015461078581610da1565b61078f8383610dab565b505050565b6001600160a01b03811633146108095760405162461bcd60e51b815260206004820152602f60248201527f416363657373436f6e74726f6c3a2063616e206f6e6c792072656e6f756e636560448201526e103937b632b9903337b91039b2b63360891b60648201526084015b60405180910390fd5b6108138282610e16565b5050565b61082f600080516020611e4e83398151915233610aae565b61084b5760405162461bcd60e51b815260040161080090611c84565b6007805460ff60a01b19169055565b6005818154811061086a57600080fd5b6000918252602090912060059091020180546001820154600283015460038401546004909401546001600160a01b03938416955091909216929085565b6108d17fe286d85d055d9c4dcf75801079a9370d8cc2d35db53d804b5b94584572b4c02233610aae565b61091d5760405162461bcd60e51b815260206004820152601760248201527f4e6f7420617574686f72697a65642072656163746976650000000000000000006044820152606401610800565b600754600160a01b900460ff161561096c5760405162461bcd60e51b815260206004820152601260248201527110dbdb9d1c9858dd081a5cc81c185d5cd95960721b6044820152606401610800565b600a5460095461097c9190611b09565b4210156109c15760405162461bcd60e51b815260206004820152601360248201527210dbdbdb191bdddb881b9bdd081c185cdcd959606a1b6044820152606401610800565b6109c9610e7d565b6109d1610ed6565b60006109de84848461100d565b805190915015610a0657610a0181602001518260400151836060015187876112c0565b426009555b5061078f6001600055565b7fbf233dd2aafeb4d50879c4aa5c81e96d92f6e6945c906a58f9f2d1c1631b4b26610a3b81610da1565b6007805460ff60a01b1916600160a01b17905560405133907f2e31b3b12b9bb0e82c32f27df5f234fabc95a374f54fd287a7132878d5dc9fc390610a829042815260200190565b60405180910390a250565b60048181548110610a9d57600080fd5b600091825260209091200154905081565b60009182526001602090815260408084206001600160a01b0393909316845291905290205460ff1690565b610af1600080516020611e4e83398151915233610aae565b610b0d5760405162461bcd60e51b815260040161080090611c84565b6000848152600260205260409020546001600160a01b031615610b615760405162461bcd60e51b815260206004820152600c60248201526b41737365742065786973747360a01b6044820152606401610800565b612710821115610ba85760405162461bcd60e51b815260206004820152601260248201527124b73b30b634b21030b63637b1b0ba34b7b760711b6044820152606401610800565b604080516080810182526001600160a01b03858116808352602080840187815284860187815260016060870181815260008d815260028087528a822099518a546001600160a01b0319169916989098178955935188830155915195870195909555516003909501805460ff1916951515959095179094556004805493840181559093527f8a35acfbc15ff81a39ae7d344fd709f28e8600b4aa8c65c6b64bfe7fe36bd19b909101879055915184815286917f3bd8269c42c7e33e5261e4654875841c31a2816a8339523988471be1975e7287910160405180910390a350505050565b610ca2600080516020611e4e83398151915233610aae565b610cbe5760405162461bcd60e51b815260040161080090611c84565b612710811115610d055760405162461bcd60e51b815260206004820152601260248201527124b73b30b634b21030b63637b1b0ba34b7b760711b6044820152606401610800565b60009182526002602052604090912060010155565b610d32600080516020611e4e83398151915233610aae565b610d4e5760405162461bcd60e51b815260040161080090611c84565b610d787fe286d85d055d9c4dcf75801079a9370d8cc2d35db53d804b5b94584572b4c02282610dab565b50565b60008281526001602081905260409091200154610d9781610da1565b61078f8383610e16565b610d7881336115e9565b610db58282610aae565b6108135760008281526001602081815260408084206001600160a01b0386168086529252808420805460ff19169093179092559051339285917f2f8788117e7eff1d82e926ec794901d17c78024a50270940304540a733656f0d9190a45050565b610e208282610aae565b156108135760008281526001602090815260408083206001600160a01b0385168085529252808320805460ff1916905551339285917ff6391f5c32d9c69d2a47ea670b442974b53935d1edc7fd64eb21e047a839171b9190a45050565b600260005403610ecf5760405162461bcd60e51b815260206004820152601f60248201527f5265656e7472616e637947756172643a207265656e7472616e742063616c6c006044820152606401610800565b6002600055565b6000805b60045481101561100757600060048281548110610ef957610ef9611cbb565b60009182526020808320909101548083526002808352604093849020845160808101865281546001600160a01b03168152600182015494810194909452908101549383019390935260039092015460ff16158015606083015291925090610ff25780516040516370a0823160e01b81523060048201526000916001600160a01b0316906370a0823190602401602060405180830381865afa158015610fa2573d6000803e3d6000fd5b505050506040513d601f19601f82011682018060405250810190610fc69190611cd1565b82516001600160a01b031660009081526003602052604090208190559050610fee8186611b09565b9450505b50508080610fff90611cea565b915050610eda565b50600855565b60408051608081018252600080825260208201819052918101829052606081018290529061103a85611642565b905073a0b86991c6218b36c1d19d4a2e9eb0ce3606eb486001600160a01b038216158061106e57506001600160a01b038116155b156110a057505060408051608081018252600080825260208201819052918101829052606081019190915290506112b9565b6001600160a01b03808316600090815260036020526040808220549284168252812054906110ce8284611b09565b90508060000361110957505060408051608081018252600080825260208201819052918101829052606081019190915293506112b992505050565b60008161111885612710611c4b565b6111229190611c62565b7faaaebeba3810b1e6b70781f14b2d72c1cb89c0b2b320c43bb67ff79f562f5ff460005260026020527f6200d9c0606964564958e1edf0b5d67e485691a223ce33e3267306cb461a390f549091506103e8891080159061118c5750611189816101f4611b09565b82115b156111fb5760006127106111a08385611d03565b6111aa9088611c4b565b6111b49190611c62565b90506040518060800160405280600115158152602001896001600160a01b03168152602001886001600160a01b0316815260200182815250985050505050505050506112b9565b6103e8891015801561121757506112146101f482611d03565b82105b1561128b57600061271061122b8386611c4b565b6112359190611c62565b905060006112438783611d03565b90506040518060800160405280600115158152602001896001600160a01b031681526020018a6001600160a01b031681526020018281525099505050505050505050506112b9565b5050604080516080810182526000808252602082018190529181018290526060810191909152955050505050505b9392505050565b6001600160a01b038516158015906112e057506001600160a01b03841615155b61131d5760405162461bcd60e51b815260206004820152600e60248201526d496e76616c696420746f6b656e7360901b6044820152606401610800565b6000831161135e5760405162461bcd60e51b815260206004820152600e60248201526d125b9d985b1a5908185b5bdd5b9d60921b6044820152606401610800565b6040516370a0823160e01b815230600482015283906001600160a01b038716906370a0823190602401602060405180830381865afa1580156113a4573d6000803e3d6000fd5b505050506040513d601f19601f820116820180604052508101906113c89190611cd1565b101561140d5760405162461bcd60e51b8152602060048201526014602482015273496e73756666696369656e742062616c616e636560601b6044820152606401610800565b600654611427906001600160a01b0387811691168561168e565b6040805160a0810182526001600160a01b0380881680835287821660208085019182528486018981524260608701908152608087018a8152600580546001810182556000828152995191027f036b6384b5eca791c62761152d0c79bb0604c104a5fb6f4eb0703f3154bb3db081018054928a166001600160a01b031993841617905595517f036b6384b5eca791c62761152d0c79bb0604c104a5fb6f4eb0703f3154bb3db1870180549190991691161790965590517f036b6384b5eca791c62761152d0c79bb0604c104a5fb6f4eb0703f3154bb3db2840155517f036b6384b5eca791c62761152d0c79bb0604c104a5fb6f4eb0703f3154bb3db383015592517f036b6384b5eca791c62761152d0c79bb0604c104a5fb6f4eb0703f3154bb3db4909101558252600390529081208054859290611565908490611d03565b90915550506001600160a01b03841660009081526003602052604081208054859290611592908490611b09565b909155505060408051848152602081018390526001600160a01b03808716929088169185917f3e2e8ff9f221ac3e95ca8fbb75410660492b63483338bb3a68a6282c0d835063910160405180910390a45050505050565b6115f38282610aae565b61081357611600816116e0565b61160b8360206116f2565b60405160200161161c929190611d3a565b60408051601f198184030181529082905262461bcd60e51b825261080091600401611daf565b60007f7ffda7a2f43427562e5fee12d8c875cfc089dab65bc5edaa49a9737c5c49338c8203611686575073c02aaa39b223fe8d0a0e5c4f27ead9083c756cc2919050565b506000919050565b604080516001600160a01b038416602482015260448082018490528251808303909101815260649091019091526020810180516001600160e01b031663a9059cbb60e01b17905261078f90849061188e565b60606107636001600160a01b03831660145b60606000611701836002611c4b565b61170c906002611b09565b67ffffffffffffffff81111561172457611724611de2565b6040519080825280601f01601f19166020018201604052801561174e576020820181803683370190505b509050600360fc1b8160008151811061176957611769611cbb565b60200101906001600160f81b031916908160001a905350600f60fb1b8160018151811061179857611798611cbb565b60200101906001600160f81b031916908160001a90535060006117bc846002611c4b565b6117c7906001611b09565b90505b600181111561183f576f181899199a1a9b1b9c1cb0b131b232b360811b85600f16601081106117fb576117fb611cbb565b1a60f81b82828151811061181157611811611cbb565b60200101906001600160f81b031916908160001a90535060049490941c9361183881611df8565b90506117ca565b5083156112b95760405162461bcd60e51b815260206004820181905260248201527f537472696e67733a20686578206c656e67746820696e73756666696369656e746044820152606401610800565b60006118e3826040518060400160405280602081526020017f5361666545524332303a206c6f772d6c6576656c2063616c6c206661696c6564815250856001600160a01b03166119639092919063ffffffff16565b90508051600014806119045750808060200190518101906119049190611e0f565b61078f5760405162461bcd60e51b815260206004820152602a60248201527f5361666545524332303a204552433230206f7065726174696f6e20646964206e6044820152691bdd081cdd58d8d9595960b21b6064820152608401610800565b6060611972848460008561197a565b949350505050565b6060824710156119db5760405162461bcd60e51b815260206004820152602660248201527f416464726573733a20696e73756666696369656e742062616c616e636520666f6044820152651c8818d85b1b60d21b6064820152608401610800565b600080866001600160a01b031685876040516119f79190611e31565b60006040518083038185875af1925050503d8060008114611a34576040519150601f19603f3d011682016040523d82523d6000602084013e611a39565b606091505b5091509150611a4a87838387611a55565b979650505050505050565b60608315611ac4578251600003611abd576001600160a01b0385163b611abd5760405162461bcd60e51b815260206004820152601d60248201527f416464726573733a2063616c6c20746f206e6f6e2d636f6e74726163740000006044820152606401610800565b5081611972565b6119728383815115611ad95781518083602001fd5b8060405162461bcd60e51b81526004016108009190611daf565b634e487b7160e01b600052601160045260246000fd5b8082018082111561076357610763611af3565b600060208284031215611b2e57600080fd5b5035919050565b600060208284031215611b4757600080fd5b81356001600160e01b0319811681146112b957600080fd5b80356001600160a01b0381168114611b7657600080fd5b919050565b60008060408385031215611b8e57600080fd5b82359150611b9e60208401611b5f565b90509250929050565b600080600060608486031215611bbc57600080fd5b505081359360208301359350604090920135919050565b600060208284031215611be557600080fd5b6112b982611b5f565b60008060008060808587031215611c0457600080fd5b84359350611c1460208601611b5f565b93969395505050506040820135916060013590565b60008060408385031215611c3c57600080fd5b50508035926020909101359150565b808202811582820484141761076357610763611af3565b600082611c7f57634e487b7160e01b600052601260045260246000fd5b500490565b60208082526019908201527f4e6f7420617574686f72697a656420676f7665726e616e636500000000000000604082015260600190565b634e487b7160e01b600052603260045260246000fd5b600060208284031215611ce357600080fd5b5051919050565b600060018201611cfc57611cfc611af3565b5060010190565b8181038181111561076357610763611af3565b60005b83811015611d31578181015183820152602001611d19565b50506000910152565b7f416363657373436f6e74726f6c3a206163636f756e7420000000000000000000815260008351611d72816017850160208801611d16565b7001034b99036b4b9b9b4b733903937b6329607d1b6017918401918201528351611da3816028840160208801611d16565b01602801949350505050565b6020815260008251806020840152611dce816040850160208701611d16565b601f01601f19169190910160400192915050565b634e487b7160e01b600052604160045260246000fd5b600081611e0757611e07611af3565b506000190190565b600060208284031215611e2157600080fd5b815180151581146112b957600080fd5b60008251611e43818460208701611d16565b919091019291505056fe71840dc4906352362b0cdaf79870196c8e42acafade72d5d5a6d59291253ceb1a2646970667358221220ccd4afb17e3fc047fd1727aab1af34f5fa370e6558cf02b5e73f6c03ea807e1c64736f6c63430008130033",
  "linkReferences": {},
  "deployedLinkReferences": {}
}